{
  "contractName": "FoodCoin",
  "abi": [
    {
      "constant": true,
      "inputs": [
        {
          "name": "",
          "type": "address"
        }
      ],
      "name": "Rescuers",
      "outputs": [
        {
          "name": "id",
          "type": "address"
        },
        {
          "name": "name",
          "type": "string"
        }
      ],
      "payable": false,
      "stateMutability": "view",
      "type": "function"
    },
    {
      "constant": true,
      "inputs": [
        {
          "name": "",
          "type": "address"
        }
      ],
      "name": "Donators",
      "outputs": [
        {
          "name": "id",
          "type": "address"
        },
        {
          "name": "name",
          "type": "string"
        }
      ],
      "payable": false,
      "stateMutability": "view",
      "type": "function"
    },
    {
      "constant": true,
      "inputs": [
        {
          "name": "",
          "type": "uint256"
        }
      ],
      "name": "Donations",
      "outputs": [
        {
          "name": "donatorId",
          "type": "address"
        },
        {
          "name": "rescuerId",
          "type": "address"
        },
        {
          "name": "lbsDonated",
          "type": "uint256"
        },
        {
          "name": "verified",
          "type": "bool"
        }
      ],
      "payable": false,
      "stateMutability": "view",
      "type": "function"
    },
    {
      "constant": false,
      "inputs": [
        {
          "name": "_name",
          "type": "string"
        }
      ],
      "name": "newDonator",
      "outputs": [],
      "payable": false,
      "stateMutability": "nonpayable",
      "type": "function"
    },
    {
      "constant": false,
      "inputs": [
        {
          "name": "_name",
          "type": "string"
        }
      ],
      "name": "newRescuer",
      "outputs": [],
      "payable": false,
      "stateMutability": "nonpayable",
      "type": "function"
    },
    {
      "constant": false,
      "inputs": [
        {
          "name": "_rescuer",
          "type": "address"
        },
        {
          "name": "_lbsDonated",
          "type": "uint256"
        }
      ],
      "name": "newDonation",
      "outputs": [
        {
          "name": "",
          "type": "uint256"
        }
      ],
      "payable": false,
      "stateMutability": "nonpayable",
      "type": "function"
    }
  ],
  "bytecode": "0x6060604052341561000f57600080fd5b6109c18061001e6000396000f300606060405260043610610078576000357c0100000000000000000000000000000000000000000000000000000000900463ffffffff1680632990aa851461007d5780634db4c058146100d3578063504af8cc14610130578063902d26ec14610232578063b2142d8514610334578063bf4749d3146103dc575b600080fd5b341561008857600080fd5b6100bd600480803573ffffffffffffffffffffffffffffffffffffffff16906020019091908035906020019091905050610439565b6040518082815260200191505060405180910390f35b34156100de57600080fd5b61012e600480803590602001908201803590602001908080601f0160208091040260200160405190810160405280939291908181526020018383808284378201915050505050509190505061057c565b005b341561013b57600080fd5b610167600480803573ffffffffffffffffffffffffffffffffffffffff16906020019091905050610650565b604051808373ffffffffffffffffffffffffffffffffffffffff1673ffffffffffffffffffffffffffffffffffffffff168152602001806020018281038252838181546001816001161561010002031660029004815260200191508054600181600116156101000203166002900480156102225780601f106101f757610100808354040283529160200191610222565b820191906000526020600020905b81548152906001019060200180831161020557829003601f168201915b5050935050505060405180910390f35b341561023d57600080fd5b610269600480803573ffffffffffffffffffffffffffffffffffffffff16906020019091905050610693565b604051808373ffffffffffffffffffffffffffffffffffffffff1673ffffffffffffffffffffffffffffffffffffffff168152602001806020018281038252838181546001816001161561010002031660029004815260200191508054600181600116156101000203166002900480156103245780601f106102f957610100808354040283529160200191610324565b820191906000526020600020905b81548152906001019060200180831161030757829003601f168201915b5050935050505060405180910390f35b341561033f57600080fd5b61035560048080359060200190919050506106d6565b604051808573ffffffffffffffffffffffffffffffffffffffff1673ffffffffffffffffffffffffffffffffffffffff1681526020018473ffffffffffffffffffffffffffffffffffffffff1673ffffffffffffffffffffffffffffffffffffffff1681526020018381526020018215151515815260200194505050505060405180910390f35b34156103e757600080fd5b610437600480803590602001908201803590602001908080601f01602080910402602001604051908101604052809392919081815260200183838082843782019150505050505091905050610762565b005b600080600280548060010182816104509190610835565b916000526020600020906004020160006080604051908101604052803373ffffffffffffffffffffffffffffffffffffffff1681526020018873ffffffffffffffffffffffffffffffffffffffff16815260200187815260200160001515815250909190915060008201518160000160006101000a81548173ffffffffffffffffffffffffffffffffffffffff021916908373ffffffffffffffffffffffffffffffffffffffff16021790555060208201518160010160006101000a81548173ffffffffffffffffffffffffffffffffffffffff021916908373ffffffffffffffffffffffffffffffffffffffff1602179055506040820151816002015560608201518160030160006101000a81548160ff021916908315150217905550505090508091505092915050565b60408051908101604052803373ffffffffffffffffffffffffffffffffffffffff16815260200182815250600160003373ffffffffffffffffffffffffffffffffffffffff1673ffffffffffffffffffffffffffffffffffffffff16815260200190815260200160002060008201518160000160006101000a81548173ffffffffffffffffffffffffffffffffffffffff021916908373ffffffffffffffffffffffffffffffffffffffff1602179055506020820151816001019080519060200190610649929190610867565b5090505050565b60016020528060005260406000206000915090508060000160009054906101000a900473ffffffffffffffffffffffffffffffffffffffff169080600101905082565b60006020528060005260406000206000915090508060000160009054906101000a900473ffffffffffffffffffffffffffffffffffffffff169080600101905082565b6002818154811015156106e557fe5b90600052602060002090600402016000915090508060000160009054906101000a900473ffffffffffffffffffffffffffffffffffffffff16908060010160009054906101000a900473ffffffffffffffffffffffffffffffffffffffff16908060020154908060030160009054906101000a900460ff16905084565b60408051908101604052803373ffffffffffffffffffffffffffffffffffffffff168152602001828152506000803373ffffffffffffffffffffffffffffffffffffffff1673ffffffffffffffffffffffffffffffffffffffff16815260200190815260200160002060008201518160000160006101000a81548173ffffffffffffffffffffffffffffffffffffffff021916908373ffffffffffffffffffffffffffffffffffffffff160217905550602082015181600101908051906020019061082e929190610867565b5090505050565b8154818355818115116108625760040281600402836000526020600020918201910161086191906108e7565b5b505050565b828054600181600116156101000203166002900490600052602060002090601f016020900481019282601f106108a857805160ff19168380011785556108d6565b828001600101855582156108d6579182015b828111156108d55782518255916020019190600101906108ba565b5b5090506108e39190610970565b5090565b61096d91905b8082111561096957600080820160006101000a81549073ffffffffffffffffffffffffffffffffffffffff02191690556001820160006101000a81549073ffffffffffffffffffffffffffffffffffffffff021916905560028201600090556003820160006101000a81549060ff0219169055506004016108ed565b5090565b90565b61099291905b8082111561098e576000816000905550600101610976565b5090565b905600a165627a7a7230582099e9482be8cd3b042e4fd26eaf21021443daaa1036eb03a510f3c7a60c45a5af0029",
  "source": "pragma solidity ^0.4.19;\n\ncontract FoodCoin {\n    \n    struct Donation {\n        address donatorId;\n        address rescuerId;\n        uint lbsDonated;\n        bool verified;\n    }\n    \n    struct Donator {\n        address id;\n        string name;\n    }\n    \n    struct Rescuer {\n        address id;\n        string name;\n    }\n    \n    mapping(address => Donator) public Donators;\n    mapping(address => Rescuer) public Rescuers;\n    Donation[] public Donations;\n\n    function newDonator(string _name) public {\n        Donators[msg.sender] = Donator({\n            id: msg.sender,\n            name: _name\n        });\n    }\n    \n    function newRescuer(string _name) public {\n        Rescuers[msg.sender] = Rescuer({\n            id: msg.sender,\n            name: _name\n        });\n    }\n    \n    function newDonation(address _rescuer, uint _lbsDonated) public returns (uint) {\n        uint donationId = Donations.push(Donation({\n            donatorId: msg.sender,\n            rescuerId: _rescuer,\n            lbsDonated: _lbsDonated,\n            verified: false\n        }));\n        return donationId;\n    }\n    \n    \n}\n",
  "sourcePath": "/Users/nickplace/Desktop/Hackathon/contracts/FoodCoin.sol",
  "compiler": {
    "name": "solc",
    "version": "0.4.19+commit.c4cbbb05.Emscripten.clang"
  },
  "schemaVersion": "1.0.1",
  "updatedAt": "2018-02-17T19:28:11.630Z"
}